{
  "address": "0xaC8Fc31518420C30ce6eEfe2E295DACc0AFC8b27",
  "abi": [
    {
      "inputs": [
        {
          "internalType": "address",
          "name": "exampleExternalContractAddress",
          "type": "address"
        }
      ],
      "stateMutability": "nonpayable",
      "type": "constructor"
    },
    {
      "anonymous": false,
      "inputs": [
        {
          "indexed": false,
          "internalType": "address",
          "name": "staker",
          "type": "address"
        },
        {
          "indexed": false,
          "internalType": "uint256",
          "name": "amount",
          "type": "uint256"
        }
      ],
      "name": "Stake",
      "type": "event"
    },
    {
      "inputs": [
        {
          "internalType": "address",
          "name": "",
          "type": "address"
        }
      ],
      "name": "balances",
      "outputs": [
        {
          "internalType": "uint256",
          "name": "",
          "type": "uint256"
        }
      ],
      "stateMutability": "view",
      "type": "function"
    },
    {
      "inputs": [],
      "name": "exampleExternalContract",
      "outputs": [
        {
          "internalType": "contract ExampleExternalContract",
          "name": "",
          "type": "address"
        }
      ],
      "stateMutability": "view",
      "type": "function"
    },
    {
      "inputs": [],
      "name": "execute",
      "outputs": [],
      "stateMutability": "nonpayable",
      "type": "function"
    },
    {
      "inputs": [],
      "name": "stake",
      "outputs": [],
      "stateMutability": "payable",
      "type": "function"
    },
    {
      "inputs": [],
      "name": "threshold",
      "outputs": [
        {
          "internalType": "uint256",
          "name": "",
          "type": "uint256"
        }
      ],
      "stateMutability": "view",
      "type": "function"
    },
    {
      "inputs": [],
      "name": "timeLeft",
      "outputs": [
        {
          "internalType": "uint256",
          "name": "",
          "type": "uint256"
        }
      ],
      "stateMutability": "view",
      "type": "function"
    },
    {
      "inputs": [],
      "name": "withdraw",
      "outputs": [],
      "stateMutability": "nonpayable",
      "type": "function"
    },
    {
      "stateMutability": "payable",
      "type": "receive"
    }
  ],
  "transactionHash": "0x01ae986d79d6e4d558f8863febfc913e47604e664c9442520a17fa607865d9d3",
  "args": [
    "0x90eF0789A7410c5fbD692142f359C9f4bd50Ede0"
  ],
  "numDeployments": 4,
  "solcInputHash": "89777aad0861441af001cf782096dcd0",
  "bytecode": "0x6080604052610011426203f480610064565b60025534801561002057600080fd5b506040516104ff3803806104ff83398101604081905261003f9161008b565b600080546001600160a01b0319166001600160a01b03929092169190911790556100bb565b8082018082111561008557634e487b7160e01b600052601160045260246000fd5b92915050565b60006020828403121561009d57600080fd5b81516001600160a01b03811681146100b457600080fd5b9392505050565b610435806100ca6000396000f3fe6080604052600436106100745760003560e01c80633ccfd60b1161004e5780633ccfd60b146100e557806342cde4e8146100fa57806361461954146101165780639f75f2271461012b57600080fd5b80631300a6d11461008857806327e235e3146100b05780633a4b66f1146100dd57600080fd5b3661008357610081610163565b005b600080fd5b34801561009457600080fd5b5061009d61020d565b6040519081526020015b60405180910390f35b3480156100bc57600080fd5b5061009d6100cb36600461038d565b60016020526000908152604090205481565b610081610163565b3480156100f157600080fd5b50610081610231565b34801561010657600080fd5b5061009d670de0b6b3a764000081565b34801561012257600080fd5b506100816102c2565b34801561013757600080fd5b5060005461014b906001600160a01b031681565b6040516001600160a01b0390911681526020016100a7565b60025442106101af5760405162461bcd60e51b8152602060048201526013602482015272111958591b1a5b99481a185cc81c185cdcd959606a1b60448201526064015b60405180910390fd5b33600090815260016020526040812080543492906101ce9084906103d3565b9091555050604080513381523460208201527febedb8b3c678666e7f36970bc8f57abf6d8fa2e828c0da91ea5b75bf68ed101a910160405180910390a1565b6000600254421061021e5750600090565b4260025461022c91906103ec565b905090565b670de0b6b3a764000047106102785760405162461bcd60e51b815260206004820152600d60248201526c151a1c995cda1bdb19081b595d609a1b60448201526064016101a6565b3360008181526001602052604080822054905181156108fc0292818181858888f193505050501580156102af573d6000803e3d6000fd5b5033600090815260016020526040812055565b6002544210156103145760405162461bcd60e51b815260206004820152601b60248201527f446561646c696e6520686173206e6f742070617373656420796574000000000060448201526064016101a6565b670de0b6b3a7640000471061038b5760008054906101000a90046001600160a01b03166001600160a01b031663522e1177476040518263ffffffff1660e01b81526004016000604051808303818588803b15801561037157600080fd5b505af1158015610385573d6000803e3d6000fd5b50505050505b565b60006020828403121561039f57600080fd5b81356001600160a01b03811681146103b657600080fd5b9392505050565b634e487b7160e01b600052601160045260246000fd5b808201808211156103e6576103e66103bd565b92915050565b818103818111156103e6576103e66103bd56fea2646970667358221220e01bb7dd73e76cb780750ffe704122ed37a9b38247eaf6757161d53da780ce5064736f6c63430008140033",
  "devdoc": {
    "kind": "dev",
    "methods": {},
    "version": 1
  },
  "userdoc": {
    "kind": "user",
    "methods": {},
    "version": 1
  },
  "storageLayout": {
    "storage": [
      {
        "astId": 19,
        "contract": "contracts/Staker.sol:Staker",
        "label": "exampleExternalContract",
        "offset": 0,
        "slot": "0",
        "type": "t_contract(ExampleExternalContract)12"
      },
      {
        "astId": 23,
        "contract": "contracts/Staker.sol:Staker",
        "label": "balances",
        "offset": 0,
        "slot": "1",
        "type": "t_mapping(t_address,t_uint256)"
      },
      {
        "astId": 29,
        "contract": "contracts/Staker.sol:Staker",
        "label": "deadline",
        "offset": 0,
        "slot": "2",
        "type": "t_uint256"
      }
    ],
    "types": {
      "t_address": {
        "encoding": "inplace",
        "label": "address",
        "numberOfBytes": "20"
      },
      "t_contract(ExampleExternalContract)12": {
        "encoding": "inplace",
        "label": "contract ExampleExternalContract",
        "numberOfBytes": "20"
      },
      "t_mapping(t_address,t_uint256)": {
        "encoding": "mapping",
        "key": "t_address",
        "label": "mapping(address => uint256)",
        "numberOfBytes": "32",
        "value": "t_uint256"
      },
      "t_uint256": {
        "encoding": "inplace",
        "label": "uint256",
        "numberOfBytes": "32"
      }
    }
  }
}